{
  "_format": "hh3-artifact-1",
  "contractName": "OpenPayAI",
  "sourceName": "contracts/OpenPayAI.sol",
  "abi": [
    {
      "inputs": [
        {
          "internalType": "address",
          "name": "_owner",
          "type": "address"
        }
      ],
      "stateMutability": "nonpayable",
      "type": "constructor"
    },
    {
      "inputs": [
        {
          "internalType": "bytes32",
          "name": "hash",
          "type": "bytes32"
        },
        {
          "internalType": "uint256",
          "name": "price",
          "type": "uint256"
        },
        {
          "internalType": "address",
          "name": "dataOwner",
          "type": "address"
        }
      ],
      "name": "addEntry",
      "outputs": [],
      "stateMutability": "nonpayable",
      "type": "function"
    },
    {
      "inputs": [
        {
          "internalType": "bytes32",
          "name": "hash",
          "type": "bytes32"
        }
      ],
      "name": "buyLicense",
      "outputs": [],
      "stateMutability": "payable",
      "type": "function"
    },
    {
      "inputs": [
        {
          "internalType": "bytes32",
          "name": "",
          "type": "bytes32"
        }
      ],
      "name": "entries",
      "outputs": [
        {
          "internalType": "uint256",
          "name": "price",
          "type": "uint256"
        },
        {
          "internalType": "address",
          "name": "dataOwner",
          "type": "address"
        }
      ],
      "stateMutability": "view",
      "type": "function"
    },
    {
      "inputs": [
        {
          "internalType": "bytes32",
          "name": "hash",
          "type": "bytes32"
        }
      ],
      "name": "getEntry",
      "outputs": [
        {
          "internalType": "uint256",
          "name": "",
          "type": "uint256"
        },
        {
          "internalType": "address",
          "name": "",
          "type": "address"
        }
      ],
      "stateMutability": "view",
      "type": "function"
    },
    {
      "inputs": [
        {
          "internalType": "address",
          "name": "",
          "type": "address"
        },
        {
          "internalType": "bytes32",
          "name": "",
          "type": "bytes32"
        }
      ],
      "name": "licenses",
      "outputs": [
        {
          "internalType": "bool",
          "name": "",
          "type": "bool"
        }
      ],
      "stateMutability": "view",
      "type": "function"
    },
    {
      "inputs": [],
      "name": "owner",
      "outputs": [
        {
          "internalType": "address",
          "name": "",
          "type": "address"
        }
      ],
      "stateMutability": "view",
      "type": "function"
    },
    {
      "inputs": [
        {
          "internalType": "bytes32",
          "name": "hash",
          "type": "bytes32"
        },
        {
          "internalType": "uint256",
          "name": "newPrice",
          "type": "uint256"
        }
      ],
      "name": "updatePrice",
      "outputs": [],
      "stateMutability": "nonpayable",
      "type": "function"
    },
    {
      "inputs": [],
      "name": "withdraw",
      "outputs": [],
      "stateMutability": "nonpayable",
      "type": "function"
    },
    {
      "stateMutability": "payable",
      "type": "receive"
    }
  ],
  "bytecode": "0x60a060405234801561000f575f5ffd5b5060405161088d38038061088d83398101604081905261002e9161003f565b6001600160a01b031660805261006c565b5f6020828403121561004f575f5ffd5b81516001600160a01b0381168114610065575f5ffd5b9392505050565b6080516107f46100995f395f81816101a501528181610209015281816102b3015261037201526107f45ff3fe60806040526004361061007c575f3560e01c80635f704f3e1161004c5780635f704f3e14610162578063724fda67146101815780638da5cb5b146101945780639a5e4eb4146101df575f5ffd5b8063267b6922146100875780633ccfd60b146100e4578063507c232e146100fa5780635459a0a814610119575f5ffd5b3661008357005b5f5ffd5b348015610092575f5ffd5b506100c26100a13660046106e4565b5f60208190529081526040902080546001909101546001600160a01b031682565b604080519283526001600160a01b039091166020830152015b60405180910390f35b3480156100ef575f5ffd5b506100f86101fe565b005b348015610105575f5ffd5b506100f8610114366004610716565b610367565b348015610124575f5ffd5b50610152610133366004610748565b600160209081525f928352604080842090915290825290205460ff1681565b60405190151581526020016100db565b34801561016d575f5ffd5b506100f861017c366004610770565b610475565b6100f861018f3660046106e4565b61051c565b34801561019f575f5ffd5b506101c77f000000000000000000000000000000000000000000000000000000000000000081565b6040516001600160a01b0390911681526020016100db565b3480156101ea575f5ffd5b506100c26101f93660046106e4565b610675565b336001600160a01b037f0000000000000000000000000000000000000000000000000000000000000000161461026b5760405162461bcd60e51b815260206004820152600d60248201526c2737ba103a34329027bbb732b960991b60448201526064015b60405180910390fd5b47806102b05760405162461bcd60e51b81526020600482015260146024820152734e6f2066756e647320746f20776974686472617760601b6044820152606401610262565b5f7f00000000000000000000000000000000000000000000000000000000000000006001600160a01b0316826040515f6040518083038185875af1925050503d805f8114610319576040519150601f19603f3d011682016040523d82523d5f602084013e61031e565b606091505b50509050806103635760405162461bcd60e51b815260206004820152601160248201527015da5d1a191c985dd85b0819985a5b1959607a1b6044820152606401610262565b5050565b336001600160a01b037f000000000000000000000000000000000000000000000000000000000000000016146103cf5760405162461bcd60e51b815260206004820152600d60248201526c2737ba103a34329027bbb732b960991b6044820152606401610262565b5f838152602081905260409020600101546001600160a01b03161561042d5760405162461bcd60e51b8152602060048201526014602482015273456e74727920616c72656164792065786973747360601b6044820152606401610262565b6040805180820182529283526001600160a01b0391821660208085019182525f9586528590529320915182559151600190910180546001600160a01b03191691909216179055565b5f8281526020819052604090206001015482906001600160a01b031633146104d45760405162461bcd60e51b81526020600482015260126024820152712737ba103a3432903230ba309037bbb732b960711b6044820152606401610262565b5f838152602081905260409020600101546001600160a01b031661050a5760405162461bcd60e51b815260040161026290610790565b505f9182526020829052604090912055565b5f818152602081905260409020600101546001600160a01b03166105525760405162461bcd60e51b815260040161026290610790565b5f818152602081905260409020543410156105a45760405162461bcd60e51b8152602060048201526012602482015271496e73756666696369656e742066756e647360701b6044820152606401610262565b5f818152602081905260408082206001810154905491516001600160a01b039091169290839083908381818185875af1925050503d805f8114610602576040519150601f19603f3d011682016040523d82523d5f602084013e610607565b606091505b505090508061064a5760405162461bcd60e51b815260206004820152600f60248201526e151c985b9cd9995c8819985a5b1959608a1b6044820152606401610262565b5050335f908152600160208181526040808420958452949052929020805460ff191690921790915550565b5f8181526020819052604081206001015481906001600160a01b03166106ad5760405162461bcd60e51b815260040161026290610790565b50505f9081526020818152604091829020825180840190935280548084526001909101546001600160a01b03169290910182905291565b5f602082840312156106f4575f5ffd5b5035919050565b80356001600160a01b0381168114610711575f5ffd5b919050565b5f5f5f60608486031215610728575f5ffd5b833592506020840135915061073f604085016106fb565b90509250925092565b5f5f60408385031215610759575f5ffd5b610762836106fb565b946020939093013593505050565b5f5f60408385031215610781575f5ffd5b50508035926020909101359150565b602080825260149082015273115b9d1c9e48191bd95cc81b9bdd08195e1a5cdd60621b60408201526060019056fea26469706673582212201e116c75592c2d69916c6b9a5a0ebfc9b6114ad5aab9c1afa56f52e445d7077264736f6c634300081c0033",
  "linkReferences": {},
  "deployedLinkReferences": {},
  "immutableReferences": {
    "8": [
      {
        "length": 32,
        "start": 421
      },
      {
        "length": 32,
        "start": 521
      },
      {
        "length": 32,
        "start": 691
      },
      {
        "length": 32,
        "start": 882
      }
    ]
  },
  "inputSourceName": "project/contracts/OpenPayAI.sol",
  "buildInfoId": "solc-0_8_28-82a943d2a537e2eac38485bfd621b383db73c03c"
}