{
  "_format": "hh3-artifact-1",
  "contractName": "OpenPayAI",
  "sourceName": "contracts/OpenPayAI.sol",
  "abi": [
    {
      "inputs": [
        {
          "internalType": "address",
          "name": "_owner",
          "type": "address"
        }
      ],
      "stateMutability": "nonpayable",
      "type": "constructor"
    },
    {
      "inputs": [
        {
          "internalType": "bytes32",
          "name": "",
          "type": "bytes32"
        }
      ],
      "name": "entries",
      "outputs": [
        {
          "internalType": "uint256",
          "name": "price",
          "type": "uint256"
        },
        {
          "internalType": "address",
          "name": "dataOwner",
          "type": "address"
        }
      ],
      "stateMutability": "view",
      "type": "function"
    },
    {
      "inputs": [
        {
          "internalType": "address",
          "name": "",
          "type": "address"
        },
        {
          "internalType": "bytes32",
          "name": "",
          "type": "bytes32"
        }
      ],
      "name": "licenses",
      "outputs": [
        {
          "internalType": "bool",
          "name": "",
          "type": "bool"
        }
      ],
      "stateMutability": "view",
      "type": "function"
    },
    {
      "inputs": [],
      "name": "owner",
      "outputs": [
        {
          "internalType": "address",
          "name": "",
          "type": "address"
        }
      ],
      "stateMutability": "view",
      "type": "function"
    },
    {
      "inputs": [],
      "name": "withdraw",
      "outputs": [],
      "stateMutability": "nonpayable",
      "type": "function"
    },
    {
      "stateMutability": "payable",
      "type": "receive"
    }
  ],
  "bytecode": "0x60a0604052348015600e575f5ffd5b506040516103ca3803806103ca833981016040819052602b91603b565b6001600160a01b03166080526066565b5f60208284031215604a575f5ffd5b81516001600160a01b0381168114605f575f5ffd5b9392505050565b60805161033e61008c5f395f81816101190152818161015e0152610208015261033e5ff3fe608060405260043610610041575f3560e01c8063267b69221461004c5780633ccfd60b146100a95780635459a0a8146100bf5780638da5cb5b14610108575f5ffd5b3661004857005b5f5ffd5b348015610057575f5ffd5b506100876100663660046102bc565b5f60208190529081526040902080546001909101546001600160a01b031682565b604080519283526001600160a01b039091166020830152015b60405180910390f35b3480156100b4575f5ffd5b506100bd610153565b005b3480156100ca575f5ffd5b506100f86100d93660046102d3565b600160209081525f928352604080842090915290825290205460ff1681565b60405190151581526020016100a0565b348015610113575f5ffd5b5061013b7f000000000000000000000000000000000000000000000000000000000000000081565b6040516001600160a01b0390911681526020016100a0565b336001600160a01b037f000000000000000000000000000000000000000000000000000000000000000016146101c05760405162461bcd60e51b815260206004820152600d60248201526c2737ba103a34329027bbb732b960991b60448201526064015b60405180910390fd5b47806102055760405162461bcd60e51b81526020600482015260146024820152734e6f2066756e647320746f20776974686472617760601b60448201526064016101b7565b5f7f00000000000000000000000000000000000000000000000000000000000000006001600160a01b0316826040515f6040518083038185875af1925050503d805f811461026e576040519150601f19603f3d011682016040523d82523d5f602084013e610273565b606091505b50509050806102b85760405162461bcd60e51b815260206004820152601160248201527015da5d1a191c985dd85b0819985a5b1959607a1b60448201526064016101b7565b5050565b5f602082840312156102cc575f5ffd5b5035919050565b5f5f604083850312156102e4575f5ffd5b82356001600160a01b03811681146102fa575f5ffd5b94602093909301359350505056fea2646970667358221220c61bf60ff9f3da946c3b26b7e82ca90a46fc7919e0cf86dc6be495b192756e3764736f6c634300081c0033",
  "linkReferences": {},
  "deployedLinkReferences": {},
  "immutableReferences": {
    "8": [
      {
        "length": 32,
        "start": 281
      },
      {
        "length": 32,
        "start": 350
      },
      {
        "length": 32,
        "start": 520
      }
    ]
  },
  "inputSourceName": "project/contracts/OpenPayAI.sol",
  "buildInfoId": "solc-0_8_28-8f1a6f371732ad604167cd530dbbfc9e084e1558"
}